{
  "_format": "hh-sol-artifact-1",
  "contractName": "OrphicGameEngine",
  "sourceName": "contracts/OrphicGameEngine.sol",
  "abi": [
    {
      "inputs": [],
      "stateMutability": "nonpayable",
      "type": "constructor"
    },
    {
      "inputs": [
        {
          "internalType": "address",
          "name": "sender",
          "type": "address"
        },
        {
          "internalType": "uint256",
          "name": "tokenId",
          "type": "uint256"
        },
        {
          "internalType": "address",
          "name": "owner",
          "type": "address"
        }
      ],
      "name": "ERC721IncorrectOwner",
      "type": "error"
    },
    {
      "inputs": [
        {
          "internalType": "address",
          "name": "operator",
          "type": "address"
        },
        {
          "internalType": "uint256",
          "name": "tokenId",
          "type": "uint256"
        }
      ],
      "name": "ERC721InsufficientApproval",
      "type": "error"
    },
    {
      "inputs": [
        {
          "internalType": "address",
          "name": "approver",
          "type": "address"
        }
      ],
      "name": "ERC721InvalidApprover",
      "type": "error"
    },
    {
      "inputs": [
        {
          "internalType": "address",
          "name": "operator",
          "type": "address"
        }
      ],
      "name": "ERC721InvalidOperator",
      "type": "error"
    },
    {
      "inputs": [
        {
          "internalType": "address",
          "name": "owner",
          "type": "address"
        }
      ],
      "name": "ERC721InvalidOwner",
      "type": "error"
    },
    {
      "inputs": [
        {
          "internalType": "address",
          "name": "receiver",
          "type": "address"
        }
      ],
      "name": "ERC721InvalidReceiver",
      "type": "error"
    },
    {
      "inputs": [
        {
          "internalType": "address",
          "name": "sender",
          "type": "address"
        }
      ],
      "name": "ERC721InvalidSender",
      "type": "error"
    },
    {
      "inputs": [
        {
          "internalType": "uint256",
          "name": "tokenId",
          "type": "uint256"
        }
      ],
      "name": "ERC721NonexistentToken",
      "type": "error"
    },
    {
      "inputs": [],
      "name": "OrphicGameEngine__AlreadyListed",
      "type": "error"
    },
    {
      "inputs": [],
      "name": "OrphicGameEngine__InvalidRarity",
      "type": "error"
    },
    {
      "inputs": [],
      "name": "OrphicGameEngine__NotListed",
      "type": "error"
    },
    {
      "inputs": [],
      "name": "OrphicGameEngine__NotOwner",
      "type": "error"
    },
    {
      "inputs": [],
      "name": "OrphicGameEngine__PriceNotMet",
      "type": "error"
    },
    {
      "anonymous": false,
      "inputs": [
        {
          "indexed": true,
          "internalType": "address",
          "name": "owner",
          "type": "address"
        },
        {
          "indexed": true,
          "internalType": "address",
          "name": "approved",
          "type": "address"
        },
        {
          "indexed": true,
          "internalType": "uint256",
          "name": "tokenId",
          "type": "uint256"
        }
      ],
      "name": "Approval",
      "type": "event"
    },
    {
      "anonymous": false,
      "inputs": [
        {
          "indexed": true,
          "internalType": "address",
          "name": "owner",
          "type": "address"
        },
        {
          "indexed": true,
          "internalType": "address",
          "name": "operator",
          "type": "address"
        },
        {
          "indexed": false,
          "internalType": "bool",
          "name": "approved",
          "type": "bool"
        }
      ],
      "name": "ApprovalForAll",
      "type": "event"
    },
    {
      "anonymous": false,
      "inputs": [
        {
          "indexed": true,
          "internalType": "uint256",
          "name": "tokenId",
          "type": "uint256"
        },
        {
          "indexed": true,
          "internalType": "address",
          "name": "seller",
          "type": "address"
        },
        {
          "indexed": false,
          "internalType": "uint256",
          "name": "price",
          "type": "uint256"
        }
      ],
      "name": "MarketItemCreated",
      "type": "event"
    },
    {
      "anonymous": false,
      "inputs": [
        {
          "indexed": true,
          "internalType": "uint256",
          "name": "tokenId",
          "type": "uint256"
        },
        {
          "indexed": true,
          "internalType": "address",
          "name": "buyer",
          "type": "address"
        },
        {
          "indexed": false,
          "internalType": "uint256",
          "name": "price",
          "type": "uint256"
        }
      ],
      "name": "MarketItemSold",
      "type": "event"
    },
    {
      "anonymous": false,
      "inputs": [
        {
          "indexed": true,
          "internalType": "address",
          "name": "owner",
          "type": "address"
        },
        {
          "indexed": false,
          "internalType": "uint256",
          "name": "tokenId",
          "type": "uint256"
        },
        {
          "indexed": false,
          "internalType": "string",
          "name": "monsterName",
          "type": "string"
        }
      ],
      "name": "MonsterMinted",
      "type": "event"
    },
    {
      "anonymous": false,
      "inputs": [
        {
          "indexed": true,
          "internalType": "address",
          "name": "from",
          "type": "address"
        },
        {
          "indexed": true,
          "internalType": "address",
          "name": "to",
          "type": "address"
        },
        {
          "indexed": true,
          "internalType": "uint256",
          "name": "tokenId",
          "type": "uint256"
        }
      ],
      "name": "Transfer",
      "type": "event"
    },
    {
      "inputs": [
        {
          "internalType": "address",
          "name": "to",
          "type": "address"
        },
        {
          "internalType": "uint256",
          "name": "tokenId",
          "type": "uint256"
        }
      ],
      "name": "approve",
      "outputs": [],
      "stateMutability": "nonpayable",
      "type": "function"
    },
    {
      "inputs": [
        {
          "internalType": "address",
          "name": "owner",
          "type": "address"
        }
      ],
      "name": "balanceOf",
      "outputs": [
        {
          "internalType": "uint256",
          "name": "",
          "type": "uint256"
        }
      ],
      "stateMutability": "view",
      "type": "function"
    },
    {
      "inputs": [
        {
          "internalType": "uint256",
          "name": "tokenId",
          "type": "uint256"
        }
      ],
      "name": "buyFromMarket",
      "outputs": [],
      "stateMutability": "payable",
      "type": "function"
    },
    {
      "inputs": [
        {
          "internalType": "address",
          "name": "user",
          "type": "address"
        }
      ],
      "name": "getAllMonstersFromAUser",
      "outputs": [
        {
          "components": [
            {
              "internalType": "string",
              "name": "name",
              "type": "string"
            },
            {
              "internalType": "uint256",
              "name": "attack",
              "type": "uint256"
            },
            {
              "internalType": "uint256",
              "name": "defense",
              "type": "uint256"
            },
            {
              "internalType": "uint256",
              "name": "hp",
              "type": "uint256"
            },
            {
              "internalType": "string",
              "name": "rarity",
              "type": "string"
            },
            {
              "internalType": "string",
              "name": "tokenURI",
              "type": "string"
            }
          ],
          "internalType": "struct OrphicGameEngine.MonsterAttributes[]",
          "name": "",
          "type": "tuple[]"
        }
      ],
      "stateMutability": "view",
      "type": "function"
    },
    {
      "inputs": [
        {
          "internalType": "uint256",
          "name": "tokenId",
          "type": "uint256"
        }
      ],
      "name": "getApproved",
      "outputs": [
        {
          "internalType": "address",
          "name": "",
          "type": "address"
        }
      ],
      "stateMutability": "view",
      "type": "function"
    },
    {
      "inputs": [],
      "name": "getMarketItems",
      "outputs": [
        {
          "components": [
            {
              "internalType": "uint256",
              "name": "tokenId",
              "type": "uint256"
            },
            {
              "internalType": "address",
              "name": "seller",
              "type": "address"
            },
            {
              "internalType": "uint256",
              "name": "price",
              "type": "uint256"
            }
          ],
          "internalType": "struct OrphicGameEngine.MarketItem[]",
          "name": "",
          "type": "tuple[]"
        }
      ],
      "stateMutability": "view",
      "type": "function"
    },
    {
      "inputs": [
        {
          "internalType": "uint256",
          "name": "tokenId",
          "type": "uint256"
        }
      ],
      "name": "getMonsterDetails",
      "outputs": [
        {
          "internalType": "string",
          "name": "monsterName",
          "type": "string"
        },
        {
          "internalType": "uint256",
          "name": "attack",
          "type": "uint256"
        },
        {
          "internalType": "uint256",
          "name": "defense",
          "type": "uint256"
        },
        {
          "internalType": "uint256",
          "name": "hp",
          "type": "uint256"
        },
        {
          "internalType": "string",
          "name": "monsterRarity",
          "type": "string"
        },
        {
          "internalType": "string",
          "name": "monsterTokenURI",
          "type": "string"
        }
      ],
      "stateMutability": "view",
      "type": "function"
    },
    {
      "inputs": [],
      "name": "getTokenCounter",
      "outputs": [
        {
          "internalType": "uint256",
          "name": "",
          "type": "uint256"
        }
      ],
      "stateMutability": "view",
      "type": "function"
    },
    {
      "inputs": [
        {
          "internalType": "address",
          "name": "user",
          "type": "address"
        }
      ],
      "name": "getUserTokenCount",
      "outputs": [
        {
          "internalType": "uint256",
          "name": "",
          "type": "uint256"
        }
      ],
      "stateMutability": "view",
      "type": "function"
    },
    {
      "inputs": [
        {
          "internalType": "address",
          "name": "user",
          "type": "address"
        }
      ],
      "name": "getUserTokens",
      "outputs": [
        {
          "internalType": "uint256[]",
          "name": "",
          "type": "uint256[]"
        }
      ],
      "stateMutability": "view",
      "type": "function"
    },
    {
      "inputs": [
        {
          "internalType": "address",
          "name": "owner",
          "type": "address"
        },
        {
          "internalType": "address",
          "name": "operator",
          "type": "address"
        }
      ],
      "name": "isApprovedForAll",
      "outputs": [
        {
          "internalType": "bool",
          "name": "",
          "type": "bool"
        }
      ],
      "stateMutability": "view",
      "type": "function"
    },
    {
      "inputs": [
        {
          "internalType": "uint256",
          "name": "",
          "type": "uint256"
        }
      ],
      "name": "marketItems",
      "outputs": [
        {
          "internalType": "uint256",
          "name": "tokenId",
          "type": "uint256"
        },
        {
          "internalType": "address",
          "name": "seller",
          "type": "address"
        },
        {
          "internalType": "uint256",
          "name": "price",
          "type": "uint256"
        }
      ],
      "stateMutability": "view",
      "type": "function"
    },
    {
      "inputs": [
        {
          "internalType": "string",
          "name": "_tokenURI",
          "type": "string"
        },
        {
          "internalType": "string",
          "name": "_name",
          "type": "string"
        },
        {
          "internalType": "uint256",
          "name": "_attack",
          "type": "uint256"
        },
        {
          "internalType": "uint256",
          "name": "_defense",
          "type": "uint256"
        },
        {
          "internalType": "uint256",
          "name": "_hp",
          "type": "uint256"
        },
        {
          "internalType": "enum OrphicGameEngine.rarity",
          "name": "_rarity",
          "type": "uint8"
        }
      ],
      "name": "mintMonster",
      "outputs": [],
      "stateMutability": "nonpayable",
      "type": "function"
    },
    {
      "inputs": [
        {
          "internalType": "uint256",
          "name": "",
          "type": "uint256"
        }
      ],
      "name": "monsterAttributes",
      "outputs": [
        {
          "internalType": "string",
          "name": "name",
          "type": "string"
        },
        {
          "internalType": "uint256",
          "name": "attack",
          "type": "uint256"
        },
        {
          "internalType": "uint256",
          "name": "defense",
          "type": "uint256"
        },
        {
          "internalType": "uint256",
          "name": "hp",
          "type": "uint256"
        },
        {
          "internalType": "string",
          "name": "rarity",
          "type": "string"
        },
        {
          "internalType": "string",
          "name": "tokenURI",
          "type": "string"
        }
      ],
      "stateMutability": "view",
      "type": "function"
    },
    {
      "inputs": [],
      "name": "name",
      "outputs": [
        {
          "internalType": "string",
          "name": "",
          "type": "string"
        }
      ],
      "stateMutability": "view",
      "type": "function"
    },
    {
      "inputs": [
        {
          "internalType": "uint256",
          "name": "tokenId",
          "type": "uint256"
        }
      ],
      "name": "ownerOf",
      "outputs": [
        {
          "internalType": "address",
          "name": "",
          "type": "address"
        }
      ],
      "stateMutability": "view",
      "type": "function"
    },
    {
      "inputs": [
        {
          "internalType": "address",
          "name": "",
          "type": "address"
        }
      ],
      "name": "playerFaction",
      "outputs": [
        {
          "internalType": "uint8",
          "name": "",
          "type": "uint8"
        }
      ],
      "stateMutability": "view",
      "type": "function"
    },
    {
      "inputs": [
        {
          "internalType": "enum OrphicGameEngine.rarity",
          "name": "_rarity",
          "type": "uint8"
        }
      ],
      "name": "rarityToString",
      "outputs": [
        {
          "internalType": "string",
          "name": "",
          "type": "string"
        }
      ],
      "stateMutability": "pure",
      "type": "function"
    },
    {
      "inputs": [
        {
          "internalType": "address",
          "name": "from",
          "type": "address"
        },
        {
          "internalType": "address",
          "name": "to",
          "type": "address"
        },
        {
          "internalType": "uint256",
          "name": "tokenId",
          "type": "uint256"
        }
      ],
      "name": "safeTransferFrom",
      "outputs": [],
      "stateMutability": "nonpayable",
      "type": "function"
    },
    {
      "inputs": [
        {
          "internalType": "address",
          "name": "from",
          "type": "address"
        },
        {
          "internalType": "address",
          "name": "to",
          "type": "address"
        },
        {
          "internalType": "uint256",
          "name": "tokenId",
          "type": "uint256"
        },
        {
          "internalType": "bytes",
          "name": "data",
          "type": "bytes"
        }
      ],
      "name": "safeTransferFrom",
      "outputs": [],
      "stateMutability": "nonpayable",
      "type": "function"
    },
    {
      "inputs": [
        {
          "internalType": "uint256",
          "name": "tokenId",
          "type": "uint256"
        },
        {
          "internalType": "uint256",
          "name": "price",
          "type": "uint256"
        }
      ],
      "name": "sellOnMarket",
      "outputs": [],
      "stateMutability": "nonpayable",
      "type": "function"
    },
    {
      "inputs": [
        {
          "internalType": "address",
          "name": "operator",
          "type": "address"
        },
        {
          "internalType": "bool",
          "name": "approved",
          "type": "bool"
        }
      ],
      "name": "setApprovalForAll",
      "outputs": [],
      "stateMutability": "nonpayable",
      "type": "function"
    },
    {
      "inputs": [
        {
          "internalType": "address",
          "name": "_player",
          "type": "address"
        },
        {
          "internalType": "uint8",
          "name": "_factionID",
          "type": "uint8"
        }
      ],
      "name": "setPlayerFaction",
      "outputs": [],
      "stateMutability": "nonpayable",
      "type": "function"
    },
    {
      "inputs": [
        {
          "internalType": "bytes4",
          "name": "interfaceId",
          "type": "bytes4"
        }
      ],
      "name": "supportsInterface",
      "outputs": [
        {
          "internalType": "bool",
          "name": "",
          "type": "bool"
        }
      ],
      "stateMutability": "view",
      "type": "function"
    },
    {
      "inputs": [],
      "name": "symbol",
      "outputs": [
        {
          "internalType": "string",
          "name": "",
          "type": "string"
        }
      ],
      "stateMutability": "view",
      "type": "function"
    },
    {
      "inputs": [],
      "name": "tokenCounter",
      "outputs": [
        {
          "internalType": "uint256",
          "name": "",
          "type": "uint256"
        }
      ],
      "stateMutability": "view",
      "type": "function"
    },
    {
      "inputs": [
        {
          "internalType": "uint256",
          "name": "tokenId",
          "type": "uint256"
        }
      ],
      "name": "tokenURI",
      "outputs": [
        {
          "internalType": "string",
          "name": "",
          "type": "string"
        }
      ],
      "stateMutability": "view",
      "type": "function"
    },
    {
      "inputs": [
        {
          "internalType": "address",
          "name": "from",
          "type": "address"
        },
        {
          "internalType": "address",
          "name": "to",
          "type": "address"
        },
        {
          "internalType": "uint256",
          "name": "tokenId",
          "type": "uint256"
        }
      ],
      "name": "transferFrom",
      "outputs": [],
      "stateMutability": "nonpayable",
      "type": "function"
    },
    {
      "inputs": [
        {
          "internalType": "address",
          "name": "",
          "type": "address"
        }
      ],
      "name": "userTokenCount",
      "outputs": [
        {
          "internalType": "uint256",
          "name": "",
          "type": "uint256"
        }
      ],
      "stateMutability": "view",
      "type": "function"
    },
    {
      "inputs": [
        {
          "internalType": "address",
          "name": "",
          "type": "address"
        },
        {
          "internalType": "uint256",
          "name": "",
          "type": "uint256"
        }
      ],
      "name": "userTokens",
      "outputs": [
        {
          "internalType": "uint256",
          "name": "",
          "type": "uint256"
        }
      ],
      "stateMutability": "view",
      "type": "function"
    }
  ],
  "bytecode": "0x608060405234801561001057600080fd5b506040518060400160405280600881526020017f4d6f6e73746572730000000000000000000000000000000000000000000000008152506040518060400160405280600381526020017f4d4f4e0000000000000000000000000000000000000000000000000000000000815250816000908161008c91906102fc565b50806001908161009c91906102fc565b50505060006006819055506103ce565b600081519050919050565b7f4e487b7100000000000000000000000000000000000000000000000000000000600052604160045260246000fd5b7f4e487b7100000000000000000000000000000000000000000000000000000000600052602260045260246000fd5b6000600282049050600182168061012d57607f821691505b6020821081036101405761013f6100e6565b5b50919050565b60008190508160005260206000209050919050565b60006020601f8301049050919050565b600082821b905092915050565b6000600883026101a87fffffffffffffffffffffffffffffffffffffffffffffffffffffffffffffffff8261016b565b6101b2868361016b565b95508019841693508086168417925050509392505050565b6000819050919050565b6000819050919050565b60006101f96101f46101ef846101ca565b6101d4565b6101ca565b9050919050565b6000819050919050565b610213836101de565b61022761021f82610200565b848454610178565b825550505050565b600090565b61023c61022f565b61024781848461020a565b505050565b5b8181101561026b57610260600082610234565b60018101905061024d565b5050565b601f8211156102b05761028181610146565b61028a8461015b565b81016020851015610299578190505b6102ad6102a58561015b565b83018261024c565b50505b505050565b600082821c905092915050565b60006102d3600019846008026102b5565b1980831691505092915050565b60006102ec83836102c2565b9150826002028217905092915050565b610305826100ac565b67ffffffffffffffff81111561031e5761031d6100b7565b5b6103288254610115565b61033382828561026f565b600060209050601f8311600181146103665760008415610354578287015190505b61035e85826102e0565b8655506103c6565b601f19841661037486610146565b60005b8281101561039c57848901518255600182019150602085019450602081019050610377565b868310156103b957848901516103b5601f8916826102c2565b8355505b6001600288020188555050505b505050505050565b61422b806103dd6000396000f3fe6080604052600436106101cd5760003560e01c806395d89b41116100f7578063c87b56dd11610095578063dfd41b2a11610064578063dfd41b2a14610704578063e5dad9101461072d578063e985e9c51461076f578063f9f411d8146107ac576101cd565b8063c87b56dd14610622578063cd4d18661461065f578063d082e3811461069c578063dc027438146106c7576101cd565b8063b161d7e2116100d1578063b161d7e214610556578063b88d4fde1461057f578063b8a6f402146105a8578063bbeff99a146105e5576101cd565b806395d89b41146104c0578063a22cb465146104eb578063b0e66e8914610514576101cd565b806342842e0e1161016f57806351f28e141161013e57806351f28e14146103dc5780636352211e1461041b5780636e02007d1461045857806370a0823114610483576101cd565b806342842e0e146103105780634b8f85f514610339578063519dc8d21461036257806351d87fc11461039f576101cd565b8063095ea7b3116101ab578063095ea7b31461027757806321f1200e146102a057806323b872dd146102bc57806329aa3a42146102e5576101cd565b806301ffc9a7146101d257806306fdde031461020f578063081812fc1461023a575b600080fd5b3480156101de57600080fd5b506101f960048036038101906101f49190612e56565b6107e9565b6040516102069190612e9e565b60405180910390f35b34801561021b57600080fd5b506102246108cb565b6040516102319190612f49565b60405180910390f35b34801561024657600080fd5b50610261600480360381019061025c9190612fa1565b61095d565b60405161026e919061300f565b60405180910390f35b34801561028357600080fd5b5061029e60048036038101906102999190613056565b610979565b005b6102ba60048036038101906102b59190612fa1565b61098f565b005b3480156102c857600080fd5b506102e360048036038101906102de9190613096565b610bad565b005b3480156102f157600080fd5b506102fa610caf565b60405161030791906131f8565b60405180910390f35b34801561031c57600080fd5b5061033760048036038101906103329190613096565b610eb2565b005b34801561034557600080fd5b50610360600480360381019061035b9190613253565b610ed2565b005b34801561036e57600080fd5b5061038960048036038101906103849190613293565b610f2e565b604051610396919061336f565b60405180910390f35b3480156103ab57600080fd5b506103c660048036038101906103c19190613293565b610fc5565b6040516103d39190613534565b60405180910390f35b3480156103e857600080fd5b5061040360048036038101906103fe9190612fa1565b611305565b60405161041293929190613565565b60405180910390f35b34801561042757600080fd5b50610442600480360381019061043d9190612fa1565b61134f565b60405161044f919061300f565b60405180910390f35b34801561046457600080fd5b5061046d611361565b60405161047a919061359c565b60405180910390f35b34801561048f57600080fd5b506104aa60048036038101906104a59190613293565b61136b565b6040516104b7919061359c565b60405180910390f35b3480156104cc57600080fd5b506104d5611425565b6040516104e29190612f49565b60405180910390f35b3480156104f757600080fd5b50610512600480360381019061050d91906135e3565b6114b7565b005b34801561052057600080fd5b5061053b60048036038101906105369190612fa1565b6114cd565b60405161054d96959493929190613623565b60405180910390f35b34801561056257600080fd5b5061057d60048036038101906105789190613699565b611701565b005b34801561058b57600080fd5b506105a660048036038101906105a1919061380e565b611908565b005b3480156105b457600080fd5b506105cf60048036038101906105ca9190613293565b61192d565b6040516105dc919061359c565b60405180910390f35b3480156105f157600080fd5b5061060c600480360381019061060791906138b6565b611976565b6040516106199190612f49565b60405180910390f35b34801561062e57600080fd5b5061064960048036038101906106449190612fa1565b611988565b6040516106569190612f49565b60405180910390f35b34801561066b57600080fd5b5061068660048036038101906106819190613293565b611a30565b60405161069391906138f2565b60405180910390f35b3480156106a857600080fd5b506106b1611a50565b6040516106be919061359c565b60405180910390f35b3480156106d357600080fd5b506106ee60048036038101906106e99190613293565b611a56565b6040516106fb919061359c565b60405180910390f35b34801561071057600080fd5b5061072b600480360381019061072691906139ae565b611a6e565b005b34801561073957600080fd5b50610754600480360381019061074f9190612fa1565b611c56565b60405161076696959493929190613623565b60405180910390f35b34801561077b57600080fd5b5061079660048036038101906107919190613a73565b611e2a565b6040516107a39190612e9e565b60405180910390f35b3480156107b857600080fd5b506107d360048036038101906107ce9190613056565b611ebe565b6040516107e0919061359c565b60405180910390f35b60007f80ac58cd000000000000000000000000000000000000000000000000000000007bffffffffffffffffffffffffffffffffffffffffffffffffffffffff1916827bffffffffffffffffffffffffffffffffffffffffffffffffffffffff191614806108b457507f5b5e139f000000000000000000000000000000000000000000000000000000007bffffffffffffffffffffffffffffffffffffffffffffffffffffffff1916827bffffffffffffffffffffffffffffffffffffffffffffffffffffffff1916145b806108c457506108c382611eef565b5b9050919050565b6060600080546108da90613ae2565b80601f016020809104026020016040519081016040528092919081815260200182805461090690613ae2565b80156109535780601f1061092857610100808354040283529160200191610953565b820191906000526020600020905b81548152906001019060200180831161093657829003601f168201915b5050505050905090565b600061096882611f59565b5061097282611fe1565b9050919050565b61098b828261098661201e565b612026565b5050565b6000600b6000838152602001908152602001600020604051806060016040529081600082015481526020016001820160009054906101000a900473ffffffffffffffffffffffffffffffffffffffff1673ffffffffffffffffffffffffffffffffffffffff1673ffffffffffffffffffffffffffffffffffffffff16815260200160028201548152505090506000816040015111610a62576040517f08c379a0000000000000000000000000000000000000000000000000000000008152600401610a5990613b5f565b60405180910390fd5b8060400151341015610aa9576040517f08c379a0000000000000000000000000000000000000000000000000000000008152600401610aa090613bcb565b60405180910390fd5b600081602001519050610abd813385612038565b8073ffffffffffffffffffffffffffffffffffffffff166108fc83604001519081150290604051600060405180830381858888f19350505050158015610b07573d6000803e3d6000fd5b50600b60008481526020019081526020016000206000808201600090556001820160006101000a81549073ffffffffffffffffffffffffffffffffffffffff0219169055600282016000905550503373ffffffffffffffffffffffffffffffffffffffff16837f79705a7faf0849ec33d9f436aa88d50146d23806527cf13010abf315cbfe76008460400151604051610ba0919061359c565b60405180910390a3505050565b600073ffffffffffffffffffffffffffffffffffffffff168273ffffffffffffffffffffffffffffffffffffffff1603610c1f5760006040517f64a0ae92000000000000000000000000000000000000000000000000000000008152600401610c16919061300f565b60405180910390fd5b6000610c338383610c2e61201e565b6121a5565b90508373ffffffffffffffffffffffffffffffffffffffff168173ffffffffffffffffffffffffffffffffffffffff1614610ca9578382826040517f64283d7b000000000000000000000000000000000000000000000000000000008152600401610ca093929190613beb565b60405180910390fd5b50505050565b60606000600654905060008167ffffffffffffffff811115610cd457610cd36136e3565b5b604051908082528060200260200182016040528015610d0d57816020015b610cfa612d7d565b815260200190600190039081610cf25790505b5090506000805b83811015610dfd576000600b6000838152602001908152602001600020600201541115610df057600b6000828152602001908152602001600020604051806060016040529081600082015481526020016001820160009054906101000a900473ffffffffffffffffffffffffffffffffffffffff1673ffffffffffffffffffffffffffffffffffffffff1673ffffffffffffffffffffffffffffffffffffffff168152602001600282015481525050838381518110610dd657610dd5613c22565b5b60200260200101819052508180610dec90613c80565b9250505b8080600101915050610d14565b5060008167ffffffffffffffff811115610e1a57610e196136e3565b5b604051908082528060200260200182016040528015610e5357816020015b610e40612d7d565b815260200190600190039081610e385790505b50905060005b82811015610ea757838181518110610e7457610e73613c22565b5b6020026020010151828281518110610e8f57610e8e613c22565b5b60200260200101819052508080600101915050610e59565b508094505050505090565b610ecd83838360405180602001604052806000815250611908565b505050565b80600760008473ffffffffffffffffffffffffffffffffffffffff1673ffffffffffffffffffffffffffffffffffffffff16815260200190815260200160002060006101000a81548160ff021916908360ff1602179055505050565b6060600860008373ffffffffffffffffffffffffffffffffffffffff1673ffffffffffffffffffffffffffffffffffffffff168152602001908152602001600020805480602002602001604051908101604052809291908181526020018280548015610fb957602002820191906000526020600020905b815481526020019060010190808311610fa5575b50505050509050919050565b60606000600860008473ffffffffffffffffffffffffffffffffffffffff1673ffffffffffffffffffffffffffffffffffffffff16815260200190815260200160002080548060200260200160405190810160405280929190818152602001828054801561105257602002820191906000526020600020905b81548152602001906001019080831161103e575b5050505050905060008151905060008167ffffffffffffffff81111561107b5761107a6136e3565b5b6040519080825280602002602001820160405280156110b457816020015b6110a1612db4565b8152602001906001900390816110995790505b50905060005b828110156112f957600a60008583815181106110d9576110d8613c22565b5b602002602001015181526020019081526020016000206040518060c001604052908160008201805461110a90613ae2565b80601f016020809104026020016040519081016040528092919081815260200182805461113690613ae2565b80156111835780601f1061115857610100808354040283529160200191611183565b820191906000526020600020905b81548152906001019060200180831161116657829003601f168201915b505050505081526020016001820154815260200160028201548152602001600382015481526020016004820180546111ba90613ae2565b80601f01602080910402602001604051908101604052809291908181526020018280546111e690613ae2565b80156112335780601f1061120857610100808354040283529160200191611233565b820191906000526020600020905b81548152906001019060200180831161121657829003601f168201915b5050505050815260200160058201805461124c90613ae2565b80601f016020809104026020016040519081016040528092919081815260200182805461127890613ae2565b80156112c55780601f1061129a576101008083540402835291602001916112c5565b820191906000526020600020905b8154815290600101906020018083116112a857829003601f168201915b5050505050815250508282815181106112e1576112e0613c22565b5b602002602001018190525080806001019150506110ba565b50809350505050919050565b600b6020528060005260406000206000915090508060000154908060010160009054906101000a900473ffffffffffffffffffffffffffffffffffffffff16908060020154905083565b600061135a82611f59565b9050919050565b6000600654905090565b60008073ffffffffffffffffffffffffffffffffffffffff168273ffffffffffffffffffffffffffffffffffffffff16036113de5760006040517f89c62b640000000000000000000000000000000000000000000000000000000081526004016113d5919061300f565b60405180910390fd5b600360008373ffffffffffffffffffffffffffffffffffffffff1673ffffffffffffffffffffffffffffffffffffffff168152602001908152602001600020549050919050565b60606001805461143490613ae2565b80601f016020809104026020016040519081016040528092919081815260200182805461146090613ae2565b80156114ad5780601f10611482576101008083540402835291602001916114ad565b820191906000526020600020905b81548152906001019060200180831161149057829003601f168201915b5050505050905090565b6114c96114c261201e565b83836123bf565b5050565b606060008060006060806000600a60008981526020019081526020016000206040518060c001604052908160008201805461150790613ae2565b80601f016020809104026020016040519081016040528092919081815260200182805461153390613ae2565b80156115805780601f1061155557610100808354040283529160200191611580565b820191906000526020600020905b81548152906001019060200180831161156357829003601f168201915b505050505081526020016001820154815260200160028201548152602001600382015481526020016004820180546115b790613ae2565b80601f01602080910402602001604051908101604052809291908181526020018280546115e390613ae2565b80156116305780601f1061160557610100808354040283529160200191611630565b820191906000526020600020905b81548152906001019060200180831161161357829003601f168201915b5050505050815260200160058201805461164990613ae2565b80601f016020809104026020016040519081016040528092919081815260200182805461167590613ae2565b80156116c25780601f10611697576101008083540402835291602001916116c2565b820191906000526020600020905b8154815290600101906020018083116116a557829003601f168201915b5050505050815250509050806000015181602001518260400151836060015184608001518560a001519650965096509650965096505091939550919395565b3373ffffffffffffffffffffffffffffffffffffffff166117218361134f565b73ffffffffffffffffffffffffffffffffffffffff1614611777576040517f08c379a000000000000000000000000000000000000000000000000000000000815260040161176e90613d14565b60405180910390fd5b600081116117ba576040517f08c379a00000000000000000000000000000000000000000000000000000000081526004016117b190613d80565b60405180910390fd5b6000600b60008481526020019081526020016000206002015414611813576040517f08c379a000000000000000000000000000000000000000000000000000000000815260040161180a90613dec565b60405180910390fd5b60405180606001604052808381526020013373ffffffffffffffffffffffffffffffffffffffff16815260200182815250600b60008481526020019081526020016000206000820151816000015560208201518160010160006101000a81548173ffffffffffffffffffffffffffffffffffffffff021916908373ffffffffffffffffffffffffffffffffffffffff160217905550604082015181600201559050503373ffffffffffffffffffffffffffffffffffffffff16827fec759846c972e2aa7c351c68392f7388dfb8511b1d2be0ee4cdfbc50011f7152836040516118fc919061359c565b60405180910390a35050565b611913848484610bad565b61192761191e61201e565b8585858561252e565b50505050565b6000600960008373ffffffffffffffffffffffffffffffffffffffff1673ffffffffffffffffffffffffffffffffffffffff168152602001908152602001600020549050919050565b6060611981826126df565b9050919050565b6060600a600083815260200190815260200160002060050180546119ab90613ae2565b80601f01602080910402602001604051908101604052809291908181526020018280546119d790613ae2565b8015611a245780601f106119f957610100808354040283529160200191611a24565b820191906000526020600020905b815481529060010190602001808311611a0757829003601f168201915b50505050509050919050565b60076020528060005260406000206000915054906101000a900460ff1681565b60065481565b60096020528060005260406000206000915090505481565b611a7a336006546128bb565b6040518060c00160405280868152602001858152602001848152602001838152602001611aa6836126df565b815260200187815250600a600060065481526020019081526020016000206000820151816000019081611ad99190613fb8565b506020820151816001015560408201518160020155606082015181600301556080820151816004019081611b0d9190613fb8565b5060a0820151816005019081611b239190613fb8565b50905050600860003373ffffffffffffffffffffffffffffffffffffffff1673ffffffffffffffffffffffffffffffffffffffff1681526020019081526020016000206006549080600181540180825580915050600190039060005260206000200160009091909190915055600960003373ffffffffffffffffffffffffffffffffffffffff1673ffffffffffffffffffffffffffffffffffffffff1681526020019081526020016000206000815480929190611bdf90613c80565b91905055503373ffffffffffffffffffffffffffffffffffffffff167fb8aaeb86019aaf9366bce8a41716bb9bc214b93c933bb1dfee65c7475138ea4560065487604051611c2e92919061408a565b60405180910390a260066000815480929190611c4990613c80565b9190505550505050505050565b600a602052806000526040600020600091509050806000018054611c7990613ae2565b80601f0160208091040260200160405190810160405280929190818152602001828054611ca590613ae2565b8015611cf25780601f10611cc757610100808354040283529160200191611cf2565b820191906000526020600020905b815481529060010190602001808311611cd557829003601f168201915b505050505090806001015490806002015490806003015490806004018054611d1990613ae2565b80601f0160208091040260200160405190810160405280929190818152602001828054611d4590613ae2565b8015611d925780601f10611d6757610100808354040283529160200191611d92565b820191906000526020600020905b815481529060010190602001808311611d7557829003601f168201915b505050505090806005018054611da790613ae2565b80601f0160208091040260200160405190810160405280929190818152602001828054611dd390613ae2565b8015611e205780601f10611df557610100808354040283529160200191611e20565b820191906000526020600020905b815481529060010190602001808311611e0357829003601f168201915b5050505050905086565b6000600560008473ffffffffffffffffffffffffffffffffffffffff1673ffffffffffffffffffffffffffffffffffffffff16815260200190815260200160002060008373ffffffffffffffffffffffffffffffffffffffff1673ffffffffffffffffffffffffffffffffffffffff16815260200190815260200160002060009054906101000a900460ff16905092915050565b60086020528160005260406000208181548110611eda57600080fd5b90600052602060002001600091509150505481565b60007f01ffc9a7000000000000000000000000000000000000000000000000000000007bffffffffffffffffffffffffffffffffffffffffffffffffffffffff1916827bffffffffffffffffffffffffffffffffffffffffffffffffffffffff1916149050919050565b600080611f65836128d9565b9050600073ffffffffffffffffffffffffffffffffffffffff168173ffffffffffffffffffffffffffffffffffffffff1603611fd857826040517f7e273289000000000000000000000000000000000000000000000000000000008152600401611fcf919061359c565b60405180910390fd5b80915050919050565b60006004600083815260200190815260200160002060009054906101000a900473ffffffffffffffffffffffffffffffffffffffff169050919050565b600033905090565b6120338383836001612916565b505050565b600073ffffffffffffffffffffffffffffffffffffffff168273ffffffffffffffffffffffffffffffffffffffff16036120aa5760006040517f64a0ae920000000000000000000000000000000000000000000000000000000081526004016120a1919061300f565b60405180910390fd5b60006120b8838360006121a5565b9050600073ffffffffffffffffffffffffffffffffffffffff168173ffffffffffffffffffffffffffffffffffffffff160361212b57816040517f7e273289000000000000000000000000000000000000000000000000000000008152600401612122919061359c565b60405180910390fd5b8373ffffffffffffffffffffffffffffffffffffffff168173ffffffffffffffffffffffffffffffffffffffff161461219f578382826040517f64283d7b00000000000000000000000000000000000000000000000000000000815260040161219693929190613beb565b60405180910390fd5b50505050565b6000806121b1846128d9565b9050600073ffffffffffffffffffffffffffffffffffffffff168373ffffffffffffffffffffffffffffffffffffffff16146121f3576121f2818486612adb565b5b600073ffffffffffffffffffffffffffffffffffffffff168173ffffffffffffffffffffffffffffffffffffffff161461228457612235600085600080612916565b6001600360008373ffffffffffffffffffffffffffffffffffffffff1673ffffffffffffffffffffffffffffffffffffffff168152602001908152602001600020600082825403925050819055505b600073ffffffffffffffffffffffffffffffffffffffff168573ffffffffffffffffffffffffffffffffffffffff1614612307576001600360008773ffffffffffffffffffffffffffffffffffffffff1673ffffffffffffffffffffffffffffffffffffffff168152602001908152602001600020600082825401925050819055505b846002600086815260200190815260200160002060006101000a81548173ffffffffffffffffffffffffffffffffffffffff021916908373ffffffffffffffffffffffffffffffffffffffff160217905550838573ffffffffffffffffffffffffffffffffffffffff168273ffffffffffffffffffffffffffffffffffffffff167fddf252ad1be2c89b69c2b068fc378daa952ba7f163c4a11628f55a4df523b3ef60405160405180910390a4809150509392505050565b600073ffffffffffffffffffffffffffffffffffffffff168273ffffffffffffffffffffffffffffffffffffffff160361243057816040517f5b08ba18000000000000000000000000000000000000000000000000000000008152600401612427919061300f565b60405180910390fd5b80600560008573ffffffffffffffffffffffffffffffffffffffff1673ffffffffffffffffffffffffffffffffffffffff16815260200190815260200160002060008473ffffffffffffffffffffffffffffffffffffffff1673ffffffffffffffffffffffffffffffffffffffff16815260200190815260200160002060006101000a81548160ff0219169083151502179055508173ffffffffffffffffffffffffffffffffffffffff168373ffffffffffffffffffffffffffffffffffffffff167f17307eab39ab6107e8899845ad3d59bd9653f200f220920489ca2b5937696c31836040516125219190612e9e565b60405180910390a3505050565b60008373ffffffffffffffffffffffffffffffffffffffff163b11156126d8578273ffffffffffffffffffffffffffffffffffffffff1663150b7a02868685856040518563ffffffff1660e01b815260040161258d949392919061410f565b6020604051808303816000875af19250505080156125c957506040513d601f19601f820116820180604052508101906125c69190614170565b60015b61264d573d80600081146125f9576040519150601f19603f3d011682016040523d82523d6000602084013e6125fe565b606091505b50600081510361264557836040517f64a0ae9200000000000000000000000000000000000000000000000000000000815260040161263c919061300f565b60405180910390fd5b805181602001fd5b63150b7a0260e01b7bffffffffffffffffffffffffffffffffffffffffffffffffffffffff1916817bffffffffffffffffffffffffffffffffffffffffffffffffffffffff1916146126d657836040517f64a0ae920000000000000000000000000000000000000000000000000000000081526004016126cd919061300f565b60405180910390fd5b505b5050505050565b6060600060038111156126f5576126f461419d565b5b8260038111156127085761270761419d565b5b0361274a576040518060400160405280600681526020017f636f6d6d6f6e000000000000000000000000000000000000000000000000000081525090506128b6565b6001600381111561275e5761275d61419d565b5b8260038111156127715761277061419d565b5b036127b3576040518060400160405280600481526020017f726172650000000000000000000000000000000000000000000000000000000081525090506128b6565b600260038111156127c7576127c661419d565b5b8260038111156127da576127d961419d565b5b0361281c576040518060400160405280600481526020017f657069630000000000000000000000000000000000000000000000000000000081525090506128b6565b60038081111561282f5761282e61419d565b5b8260038111156128425761284161419d565b5b03612884576040518060400160405280600981526020017f6c6567656e64617279000000000000000000000000000000000000000000000081525090506128b6565b6040517f684ffbf600000000000000000000000000000000000000000000000000000000815260040160405180910390fd5b919050565b6128d5828260405180602001604052806000815250612b9f565b5050565b60006002600083815260200190815260200160002060009054906101000a900473ffffffffffffffffffffffffffffffffffffffff169050919050565b808061294f5750600073ffffffffffffffffffffffffffffffffffffffff168273ffffffffffffffffffffffffffffffffffffffff1614155b15612a8357600061295f84611f59565b9050600073ffffffffffffffffffffffffffffffffffffffff168373ffffffffffffffffffffffffffffffffffffffff16141580156129ca57508273ffffffffffffffffffffffffffffffffffffffff168173ffffffffffffffffffffffffffffffffffffffff1614155b80156129dd57506129db8184611e2a565b155b15612a1f57826040517fa9fbf51f000000000000000000000000000000000000000000000000000000008152600401612a16919061300f565b60405180910390fd5b8115612a8157838573ffffffffffffffffffffffffffffffffffffffff168273ffffffffffffffffffffffffffffffffffffffff167f8c5be1e5ebec7d5bd14f71427d1e84f3dd0314c0f7b2291e5b200ac8c7c3b92560405160405180910390a45b505b836004600085815260200190815260200160002060006101000a81548173ffffffffffffffffffffffffffffffffffffffff021916908373ffffffffffffffffffffffffffffffffffffffff16021790555050505050565b612ae6838383612bc3565b612b9a57600073ffffffffffffffffffffffffffffffffffffffff168373ffffffffffffffffffffffffffffffffffffffff1603612b5b57806040517f7e273289000000000000000000000000000000000000000000000000000000008152600401612b52919061359c565b60405180910390fd5b81816040517f177e802f000000000000000000000000000000000000000000000000000000008152600401612b919291906141cc565b60405180910390fd5b505050565b612ba98383612c84565b612bbe612bb461201e565b600085858561252e565b505050565b60008073ffffffffffffffffffffffffffffffffffffffff168373ffffffffffffffffffffffffffffffffffffffff1614158015612c7b57508273ffffffffffffffffffffffffffffffffffffffff168473ffffffffffffffffffffffffffffffffffffffff161480612c3c5750612c3b8484611e2a565b5b80612c7a57508273ffffffffffffffffffffffffffffffffffffffff16612c6283611fe1565b73ffffffffffffffffffffffffffffffffffffffff16145b5b90509392505050565b600073ffffffffffffffffffffffffffffffffffffffff168273ffffffffffffffffffffffffffffffffffffffff1603612cf65760006040517f64a0ae92000000000000000000000000000000000000000000000000000000008152600401612ced919061300f565b60405180910390fd5b6000612d04838360006121a5565b9050600073ffffffffffffffffffffffffffffffffffffffff168173ffffffffffffffffffffffffffffffffffffffff1614612d785760006040517f73c6ac6e000000000000000000000000000000000000000000000000000000008152600401612d6f919061300f565b60405180910390fd5b505050565b604051806060016040528060008152602001600073ffffffffffffffffffffffffffffffffffffffff168152602001600081525090565b6040518060c001604052806060815260200160008152602001600081526020016000815260200160608152602001606081525090565b6000604051905090565b600080fd5b600080fd5b60007fffffffff0000000000000000000000000000000000000000000000000000000082169050919050565b612e3381612dfe565b8114612e3e57600080fd5b50565b600081359050612e5081612e2a565b92915050565b600060208284031215612e6c57612e6b612df4565b5b6000612e7a84828501612e41565b91505092915050565b60008115159050919050565b612e9881612e83565b82525050565b6000602082019050612eb36000830184612e8f565b92915050565b600081519050919050565b600082825260208201905092915050565b60005b83811015612ef3578082015181840152602081019050612ed8565b60008484015250505050565b6000601f19601f8301169050919050565b6000612f1b82612eb9565b612f258185612ec4565b9350612f35818560208601612ed5565b612f3e81612eff565b840191505092915050565b60006020820190508181036000830152612f638184612f10565b905092915050565b6000819050919050565b612f7e81612f6b565b8114612f8957600080fd5b50565b600081359050612f9b81612f75565b92915050565b600060208284031215612fb757612fb6612df4565b5b6000612fc584828501612f8c565b91505092915050565b600073ffffffffffffffffffffffffffffffffffffffff82169050919050565b6000612ff982612fce565b9050919050565b61300981612fee565b82525050565b60006020820190506130246000830184613000565b92915050565b61303381612fee565b811461303e57600080fd5b50565b6000813590506130508161302a565b92915050565b6000806040838503121561306d5761306c612df4565b5b600061307b85828601613041565b925050602061308c85828601612f8c565b9150509250929050565b6000806000606084860312156130af576130ae612df4565b5b60006130bd86828701613041565b93505060206130ce86828701613041565b92505060406130df86828701612f8c565b9150509250925092565b600081519050919050565b600082825260208201905092915050565b6000819050602082019050919050565b61311e81612f6b565b82525050565b61312d81612fee565b82525050565b6060820160008201516131496000850182613115565b50602082015161315c6020850182613124565b50604082015161316f6040850182613115565b50505050565b60006131818383613133565b60608301905092915050565b6000602082019050919050565b60006131a5826130e9565b6131af81856130f4565b93506131ba83613105565b8060005b838110156131eb5781516131d28882613175565b97506131dd8361318d565b9250506001810190506131be565b5085935050505092915050565b60006020820190508181036000830152613212818461319a565b905092915050565b600060ff82169050919050565b6132308161321a565b811461323b57600080fd5b50565b60008135905061324d81613227565b92915050565b6000806040838503121561326a57613269612df4565b5b600061327885828601613041565b92505060206132898582860161323e565b9150509250929050565b6000602082840312156132a9576132a8612df4565b5b60006132b784828501613041565b91505092915050565b600081519050919050565b600082825260208201905092915050565b6000819050602082019050919050565b60006132f88383613115565b60208301905092915050565b6000602082019050919050565b600061331c826132c0565b61332681856132cb565b9350613331836132dc565b8060005b8381101561336257815161334988826132ec565b975061335483613304565b925050600181019050613335565b5085935050505092915050565b600060208201905081810360008301526133898184613311565b905092915050565b600081519050919050565b600082825260208201905092915050565b6000819050602082019050919050565b600082825260208201905092915050565b60006133d982612eb9565b6133e381856133bd565b93506133f3818560208601612ed5565b6133fc81612eff565b840191505092915050565b600060c083016000830151848203600086015261342482826133ce565b91505060208301516134396020860182613115565b50604083015161344c6040860182613115565b50606083015161345f6060860182613115565b506080830151848203608086015261347782826133ce565b91505060a083015184820360a086015261349182826133ce565b9150508091505092915050565b60006134aa8383613407565b905092915050565b6000602082019050919050565b60006134ca82613391565b6134d4818561339c565b9350836020820285016134e6856133ad565b8060005b858110156135225784840389528151613503858261349e565b945061350e836134b2565b925060208a019950506001810190506134ea565b50829750879550505050505092915050565b6000602082019050818103600083015261354e81846134bf565b905092915050565b61355f81612f6b565b82525050565b600060608201905061357a6000830186613556565b6135876020830185613000565b6135946040830184613556565b949350505050565b60006020820190506135b16000830184613556565b92915050565b6135c081612e83565b81146135cb57600080fd5b50565b6000813590506135dd816135b7565b92915050565b600080604083850312156135fa576135f9612df4565b5b600061360885828601613041565b9250506020613619858286016135ce565b9150509250929050565b600060c082019050818103600083015261363d8189612f10565b905061364c6020830188613556565b6136596040830187613556565b6136666060830186613556565b81810360808301526136788185612f10565b905081810360a083015261368c8184612f10565b9050979650505050505050565b600080604083850312156136b0576136af612df4565b5b60006136be85828601612f8c565b92505060206136cf85828601612f8c565b9150509250929050565b600080fd5b600080fd5b7f4e487b7100000000000000000000000000000000000000000000000000000000600052604160045260246000fd5b61371b82612eff565b810181811067ffffffffffffffff8211171561373a576137396136e3565b5b80604052505050565b600061374d612dea565b90506137598282613712565b919050565b600067ffffffffffffffff821115613779576137786136e3565b5b61378282612eff565b9050602081019050919050565b82818337600083830152505050565b60006137b16137ac8461375e565b613743565b9050828152602081018484840111156137cd576137cc6136de565b5b6137d884828561378f565b509392505050565b600082601f8301126137f5576137f46136d9565b5b813561380584826020860161379e565b91505092915050565b6000806000806080858703121561382857613827612df4565b5b600061383687828801613041565b945050602061384787828801613041565b935050604061385887828801612f8c565b925050606085013567ffffffffffffffff81111561387957613878612df9565b5b613885878288016137e0565b91505092959194509250565b6004811061389e57600080fd5b50565b6000813590506138b081613891565b92915050565b6000602082840312156138cc576138cb612df4565b5b60006138da848285016138a1565b91505092915050565b6138ec8161321a565b82525050565b600060208201905061390760008301846138e3565b92915050565b600067ffffffffffffffff821115613928576139276136e3565b5b61393182612eff565b9050602081019050919050565b600061395161394c8461390d565b613743565b90508281526020810184848401111561396d5761396c6136de565b5b61397884828561378f565b509392505050565b600082601f830112613995576139946136d9565b5b81356139a584826020860161393e565b91505092915050565b60008060008060008060c087890312156139cb576139ca612df4565b5b600087013567ffffffffffffffff8111156139e9576139e8612df9565b5b6139f589828a01613980565b965050602087013567ffffffffffffffff811115613a1657613a15612df9565b5b613a2289828a01613980565b9550506040613a3389828a01612f8c565b9450506060613a4489828a01612f8c565b9350506080613a5589828a01612f8c565b92505060a0613a6689828a016138a1565b9150509295509295509295565b60008060408385031215613a8a57613a89612df4565b5b6000613a9885828601613041565b9250506020613aa985828601613041565b9150509250929050565b7f4e487b7100000000000000000000000000000000000000000000000000000000600052602260045260246000fd5b60006002820490506001821680613afa57607f821691505b602082108103613b0d57613b0c613ab3565b5b50919050565b7f4974656d206e6f74206c697374656420666f722073616c650000000000000000600082015250565b6000613b49601883612ec4565b9150613b5482613b13565b602082019050919050565b60006020820190508181036000830152613b7881613b3c565b9050919050565b7f496e73756666696369656e742066756e64732073656e74000000000000000000600082015250565b6000613bb5601783612ec4565b9150613bc082613b7f565b602082019050919050565b60006020820190508181036000830152613be481613ba8565b9050919050565b6000606082019050613c006000830186613000565b613c0d6020830185613556565b613c1a6040830184613000565b949350505050565b7f4e487b7100000000000000000000000000000000000000000000000000000000600052603260045260246000fd5b7f4e487b7100000000000000000000000000000000000000000000000000000000600052601160045260246000fd5b6000613c8b82612f6b565b91507fffffffffffffffffffffffffffffffffffffffffffffffffffffffffffffffff8203613cbd57613cbc613c51565b5b600182019050919050565b7f4e6f7420746865206f776e6572206f662074686520746f6b656e000000000000600082015250565b6000613cfe601a83612ec4565b9150613d0982613cc8565b602082019050919050565b60006020820190508181036000830152613d2d81613cf1565b9050919050565b7f5072696365206d7573742062652067726561746572207468616e207a65726f00600082015250565b6000613d6a601f83612ec4565b9150613d7582613d34565b602082019050919050565b60006020820190508181036000830152613d9981613d5d565b9050919050565b7f4974656d20616c7265616479206c697374656400000000000000000000000000600082015250565b6000613dd6601383612ec4565b9150613de182613da0565b602082019050919050565b60006020820190508181036000830152613e0581613dc9565b9050919050565b60008190508160005260206000209050919050565b60006020601f8301049050919050565b600082821b905092915050565b600060088302613e6e7fffffffffffffffffffffffffffffffffffffffffffffffffffffffffffffffff82613e31565b613e788683613e31565b95508019841693508086168417925050509392505050565b6000819050919050565b6000613eb5613eb0613eab84612f6b565b613e90565b612f6b565b9050919050565b6000819050919050565b613ecf83613e9a565b613ee3613edb82613ebc565b848454613e3e565b825550505050565b600090565b613ef8613eeb565b613f03818484613ec6565b505050565b5b81811015613f2757613f1c600082613ef0565b600181019050613f09565b5050565b601f821115613f6c57613f3d81613e0c565b613f4684613e21565b81016020851015613f55578190505b613f69613f6185613e21565b830182613f08565b50505b505050565b600082821c905092915050565b6000613f8f60001984600802613f71565b1980831691505092915050565b6000613fa88383613f7e565b9150826002028217905092915050565b613fc182612eb9565b67ffffffffffffffff811115613fda57613fd96136e3565b5b613fe48254613ae2565b613fef828285613f2b565b600060209050601f8311600181146140225760008415614010578287015190505b61401a8582613f9c565b865550614082565b601f19841661403086613e0c565b60005b8281101561405857848901518255600182019150602085019450602081019050614033565b868310156140755784890151614071601f891682613f7e565b8355505b6001600288020188555050505b505050505050565b600060408201905061409f6000830185613556565b81810360208301526140b18184612f10565b90509392505050565b600081519050919050565b600082825260208201905092915050565b60006140e1826140ba565b6140eb81856140c5565b93506140fb818560208601612ed5565b61410481612eff565b840191505092915050565b60006080820190506141246000830187613000565b6141316020830186613000565b61413e6040830185613556565b818103606083015261415081846140d6565b905095945050505050565b60008151905061416a81612e2a565b92915050565b60006020828403121561418657614185612df4565b5b60006141948482850161415b565b91505092915050565b7f4e487b7100000000000000000000000000000000000000000000000000000000600052602160045260246000fd5b60006040820190506141e16000830185613000565b6141ee6020830184613556565b939250505056fea2646970667358221220b355ac0effc6514e02af2f3a304303d2f11f7bec996428151c29121b287b6b5864736f6c634300081c0033",
  "linkReferences": {},
  "deployedLinkReferences": {}
}